:020000040000FA
:100000008A11FD2F00308A000408840A8207003418
:10001000013400340A34003464340034E8340334E6
:100020001034273445346E3474347234613464349B
:1000300061343A342034253464340A34433465342A
:100040006E34743465346E3461343A34203425347B
:1000500064340A342034443465347A3465346E347C
:1000600061343A342034253464340A34203455342D
:100070006E34693464346134643465343A34203421
:0A008000253464340A340A340034D5
:100A8000080083120313A20022088500213083127C
:100A90000313A1007630A000A00B4C2DA10B4C2D10
:100AA000080083120313A500A601A70183120313F4
:100AB00025088A1141258A118312031323088A11FC
:100AC00041258A118312031324088A1141258A11B2
:100AD000013083120313A6070318A70A0030A707E3
:100AE0002708803AFF0080307F02031D792D853072
:100AF0002602031C7C2D7D2D562D08008312031326
:100B0000280829040319852D862DB52DAD01AD0AC0
:100B1000942D01300310A80DA90DFF3E031D8A2D51
:100B20000130AC002C08AD07A91F972D982D892DF9
:100B300029082B02031D9E2D28082A02031CA12D23
:100B4000A22DA82D2808AA022908031CAB03AB027A
:100B500001300310A90CA80CFF3E031DA92D013084
:100B6000AD02031DB42DB52D982D2B08A9002A0820
:100B7000A800080083120313A501A6012008210480
:100B80000319C32DC42DFB2DA701A70AD22D0130B7
:100B90000310A00DA10DFF3E031DC82D0130A400C0
:100BA0002408A707A11FD52DD62DC72D013003106E
:100BB000A50DA60DFF3E031DD72D21082302031D01
:100BC000E32D20082202031CE62DE72DEE2D200840
:100BD000A2022108031CA303A30225140130031061
:100BE000A10CA00CFF3E031DEF2D0130A702031D39
:100BF000FA2DFB2DD62D2608A1002508A0000800FF
:100C000083120313A601A31F062E072E0E2EA20980
:100C1000A309A20A0319A30AA601A60AA11F112E5D
:100C2000122E172EA009A109A00A0319A10A200853
:100C3000210403191C2E1D2E4C2EA501A50A2B2EB6
:100C400001300310A00DA10DFF3E031D212E013028
:100C5000A4002408A507A11F2E2E2F2E202E210828
:100C60002302031D352E20082202031C382E392EA4
:100C70003F2E2008A2022108031CA303A302013077
:100C80000310A10CA00CFF3E031D402E0130A50255
:100C9000031D4B2E4C2E2F2E26080319502E512E9D
:100CA000562EA209A309A20A0319A30A2308A10028
:100CB0002208A000080083120313A601A11F612EC1
:100CC000622E692EA009A109A00A0319A10AA60192
:100CD000A60AA31F6C2E6D2E762EA209A309A20AC6
:100CE0000319A30A0130A4002408A606A701A8013D
:100CF0002008210403197D2E7E2EB52EA501A50AFC
:100D00008C2E01300310A00DA10DFF3E031D822E7D
:100D10000130A4002408A507A11F8F2E902E812E3C
:100D200001300310A70DA80DFF3E031D912E2108D1
:100D30002302031D9D2E20082202031CA02EA12E9B
:100D4000A82E2008A2022108031CA303A302271433
:100D500001300310A10CA00CFF3E031DA92E013091
:100D6000A502031DB42EB52E902E26080319B92E08
:100D7000BA2EBF2EA709A809A70A0319A80A28088E
:100D8000A1002708A00008000630831603139F0067
:100D90008501FF308600831203130608B800380867
:100DA000BE006430A0000030A1003E08B800B901C8
:100DB0003808A2003908A3008A115B268A11831221
:100DC00003132008BA003A08BB006430A0000030CA
:100DD000A1003E08B800B9013808A2003908A300F4
:100DE0008A1100268A11831203132008BA003A08D8
:100DF000BE000A30A0000030A1003E08B800B901D2
:100E00003808A2003908A3008A115B268A118312D0
:100E100003132008BA003A08BC000A30A0000030D2
:100E2000A1003E08B800B9013808A2003908A300A3
:100E30008A1100268A11831203132008BA003A0887
:100E4000BD000B308A1136278A11831203133C0828
:100E5000B8003808A3003D08B9003908A4003B08D1
:100E60008A1151258A11CB2E8A110028831203136F
:100E7000B4002030AE002E08B100EA2F253037062E
:100E80000319432F442F492F37088A1140258A110F
:100E9000EA2FB2010130B407FF30340784008A1111
:100EA00002208A11B700AE00AF012F08003A0319E3
:100EB0005A2FEA2F2E08003A0319FC2F643A03191F
:100EC000652F0D3A0319652FEA2F3108840083132B
:100ED0000008B500840A0008B6000230AE002E08F3
:100EE000B107B61F742F752F7E2F0330AE002E086A
:100EF000B204B509B609B50A0319B60AB701B70AAB
:100F00003708AE002E07013E84008A1102208A11A4
:100F1000AF008A1102208A11B00030083602031D8A
:100F2000932F2F0835020318962F972F982FA22F53
:100F30000130AE002E08B70705303706031DA12F7C
:100F4000A22F802F320803390319A72FA82FAC2F07
:100F50002D308A1140258A11831203133708AE0001
:100F60002E08B300DF2F0A30A8000030A900330894
:100F7000AE002E07013E84008A1102208A11A000D3
:100F80008A1102208A11A1003608A3003508A200A8
:100F90008A11BA258A11831203132108AB00200895
:100FA000AA008A117E258A11831203132808303E75
:100FB000AF002F08B70037088A1140258A11FF308B
:100FC00083120313AE002E08B307330A031DE92F63
:100FD000EA2FB32F013083120313B407FF30340715
:100FE00084008A1102208A11AE002E08B70037084B
:100FF000031DFB2FFC2F3E2F080083018A11C42EF6
:02400E00BAFFF7
:00000001FF
